:1000000025C43FC43EC43DC43CC43BC43AC49AC6A4
:1000100038C437C436C435C434C40FC634C631C43A
:1000200030C42FC42EC42DC483C60204081001029C
:100030000201010201000002100408402002020136
:10004000010100000080805F8080808003000380C9
:1000500080147F147F14242A7F2A122313086462D9
:10006000364956205005038080801C224180804103
:10007000221C808022146B142208083E080850308D
:100080008080800808080880606080808060100898
:1000900004033E41413E80427F4080806251494698
:1000A0008022414936801814127F802745453980C7
:1000B0003C4A49318001710D03803649493680063A
:1000C00049291E803636808080563680808008140C
:1000D0002241801414141480412214088002510912
:1000E0000680324979413E7E09097E807F49493642
:1000F000803E414122807F41413E807F494941808D
:100100007F090901803E49493A807F08087F804184
:100110007F4180802040403F807F081463807F4083
:100120004040807F020C027F7F06187F803E414165
:100130003E807F090906803E41215E807F09196665
:1001400080264949328001017F01013F40403F80C4
:1001500007186018073F4038403F631408146303D2
:100160000478040361594543807F41418080030442
:1001700008106041417F8080020102808040404041
:100180004080030480808020545478807F48483029
:100190008038444428803844447F80385454488010
:1001A000047E05018048545438807F080870807AA6
:1001B0008080808020403A80807F08146280417F68
:1001C0004080807C047804787C040478803844443F
:1001D00038807C242418801824247C8078040480AF
:1001E000804854542480043F4444803C40407C80F8
:1001F0000C3040308C3C4030403C44281028444C6B
:1002000050503C8064544C448008364180807F804C
:100210008080804136088080080408100880808033
:1002200080801C2A4949221F047F4040201210125E
:1002300020102220221021545479807914147980BE
:10024000394444398039444439803D40407D803DC3
:1002500040403D807E25251A806C1A6F1A6C7D5AAD
:100260001E5A7D4E7B0F7B4E7C3A7E3A7C1C762E4E
:10027000761C1E347C341E0C1224120C081C3E7F8B
:10028000807F3E1C0880303F01627E303F028080CC
:100290001E3D777331607E7B7E60205F2380807E91
:1002A0007A7A7F80034579450310282428100814A2
:1002B0002A1408000000000036360836361E143CAA
:1002C000287844241D244442241D620108651C2210
:1002D0004146241D244C08443D44084C241D24461A
:1002E00001621D620142241D24427C4657467C7FE8
:1002F0002A2A7F802A7F417F2A0A0055000A304837
:100300004D33070629792906081C2A080808082AF7
:100310001C08EB0786075D074B07F006E006BC06E6
:10032000A7069C06F105910577051205E9049804D6
:100330001004AB03780359033A037F7F7F7F7F1C50
:100340001C1C1C1C080808080808080808080008E5
:100350000808000000080000FF1C3E773E1C3E77A6
:1003600063773E7763416377634108416341081CCB
:100370000841081C3E1C08FF4040414040404043AB
:10038000404040404540404040494040404051404E
:10039000404040214040404051404040484148405A
:1003A00048404140484040414040FF00027D00003D
:1003B00000017C020000007A0000000872040000C6
:1003C00008601000001068000000204010000000CD
:1003D00020000000000000000000000000000000FD
:1003E00000000000300000007C543800793D243DBE
:1003F000797B3F163F7B7E7C187C7E7C0810087CD6
:10040000700810087060082010601040002000FF85
:100410000C40013006300104401840061001600114
:100420001840020003600108010C404260065021A0
:100430002420582013581128100E680A101108683B
:100440000C1112086B081614096C0910100E680ABA
:1004500010130C680C1116086B081214096C0814A0
:10046000100A6808136F7717776F1009680A106F02
:100470007717776F110C680B101608690C111409A7
:100480006A1016100B7C102C2016601340412C4073
:100490000C400360002801FF403C433C40407C434B
:1004A0007C40403C433C40407C437C40403C433C9F
:1004B00040407C437C40205E215E20106F106F1016
:1004C0000877087708047B047B0402750275020133
:1004D000680168012050205020401020004020007A
:1004E0004000404000400000FF404040404040602D
:1004F0005048444464544C44446C546C44446C54DC
:100500006C7C446C556E7C446E556E7C7C6E556E76
:100510007CFF4040090100004541000003014040CC
:100520000005014040000941400000504101000029
:1005300060410100004051010000004151000000F5
:100540000041490000004141080000404501000011
:100550000541400003014040010500404000090101
:100560004040001001414000204141000040414115
:10057000000040410100FF2050502000304848302A
:100580000006090906000102020100000101000045
:10059000FF0300000000030000000007000000004F
:1005A000060200000005060000000C06000000081E
:1005B0000E0000000A0C040000080A0C00000418D9
:1005C0000C000008101C0000001418080000101493
:1005D00018000008301800001020380000002830F3
:1005E000100000202830000000000000002028300B
:1005F000FF000007000000000E00000008080800CF
:100600001010100000202020000040434300004054
:100610004646000040404C0C004040401818404006
:100620004060600000002020404040606000010702
:10063000444000020E48400018084C40301018405A
:1006400040602030404060273440407E30304040A1
:100650007E313340407E323640407E303644407EEC
:1006600030304C487E303050587E303060705E10F4
:100670001040507E303060707C202040607C21270C
:1006800044607C222E48607C38284C607C3B2B4C9C
:10069000607C3E2E4C607C3F2F4D60FF552A552AD2
:1006A000552A552A552AFF10101010100810100F47
:1006B0007010100808101010101010FF00262026CF
:1006C00000002620260000262026000026202400E8
:1006D000002620260000262026001026202610FFB7
:1006E00000001C0000003E223E007F4141417FFF90
:1006F00001000000000200010000040002000008E8
:100700000104000110020800022004110004410845
:10071000220008421044011045204802204A40505F
:1007200004415440600842684160114470426022B4
:100730004870446045507048604A50705060546042
:1007400070606068607060607060FF084428100826
:10075000040204085030100804040201FF010000E4
:1007600000000202010000060909060000304848A6
:100770003000205050200030484830000006090961
:100780000000000102FF785C6878717C38747C7A24
:1007900078506262787C606170687A6030787470DA
:1007A00079705269607C68706150667078206871F9
:1007B00060725074797062687270306174617850E0
:1007C000707A74314068441068703460284A605808
:1007D00060607038661860707842195864702970CB
:1007E000703A7854707051786A70FF142A49493E03
:1007F000001C2A493E003E493E087F2A1C08082268
:100800001C0808081C000808080008080808080850
:100810000808000808080000080800000008000098
:100820000000000000000C0000000C1200000C1280
:1008300024000C1224120C1224120CFF321E120B74
:10084000070503020001020305080D1511241FBE50
:10085000CFE5D1E0DEBFCDBF10E0A0E6B0E0E0EA3A
:10086000FFE002C005900D92A836B107D9F711E05C
:10087000A8E6B0E001C01D92A933B107E1F70DD39E
:100880008DC3BECBCF93DF93CDB7DEB7C350CDBF03
:1008900080913401853018F01092340103C08F5FCD
:1008A0008093340120913401E0913301F0E0E55967
:1008B000FF4FE20FF11D308119821A821B8280E006
:1008C00090E030FF11C0FC01EF5CFF4F4491FC0150
:1008D000E65DFF4FE491A1E0B0E0AC0FBD1FA40FB7
:1008E000B11D4C914E2B4C93369501968730910556
:1008F00041F780E090E0281789F0FC01E35CFF4FAE
:100900003491FC01E85CFF4FE491A1E0B0E0AC0F52
:10091000BD1FA30FB11D3C913E2B3C93019685302A
:10092000910549F7998183E098278A812EE78227EC
:100930008A838B812EE182278B838BB38C7F892BDB
:100940008BBB88B381789A81892B88BB82B3817EE7
:100950009B81892B82BBCD5FCDBFDF91CF91089565
:10096000F09135018F2F8F704F2F50E0BA016071D9
:100970007070E0913301F4FF02C0E81B01C0E80F82
:10098000A09136018E2F90E004962A2F30E0821736
:100990009307F4F080913801882321F081508093EF
:1009A000380114C0809137018093380145FF05C09C
:1009B00080E18F278093350109C06115710521F011
:1009C000A550A093330102C01092330181E0089535
:1009D000E093330180E008958F706370613019F007
:1009E0004093380102C0109238016295682B6093E1
:1009F000350140933701089510923301109236016A
:100A000010926B0010926C0010926D0010926E00AC
:100A100010926F000895F0DF1092350110923701A7
:100A20000895209136010BC0FC0134913F3F49F0FD
:100A30000196E22FF0E0E559FF4F30832F5F283C0D
:100A400098F320933601089590913601983C40F434
:100A5000E92FF0E0E559FF4F80839F5F90933601C7
:100A600008958F3D49F0843C61F0863D79F08C3DDE
:100A700079F0843E79F002C08AE811C0863F61F0C7
:100A800002C085E80CC08C3F49F009C087E807C068
:100A900089E805C084E803C086E801C088E8805280
:100AA000813910F5E82FF0E0CF01880F991F880FEA
:100AB000991FEE5BFF4FE80FF91F8091360195E01B
:100AC00001C0F9019F012F5F3F4FE491E7FD0AC08C
:100AD000883C30F4A82FB0E0A559BF4FEC938F5F4E
:100AE000915079F780933601089583E08ABB8EE7B1
:100AF00087BB8EE181BB8BB38C6F8BBB88B3816866
:100B000088BB82B3816E82BB10BE85E083BF84E068
:100B100086BF87E28CBF89B7856089BF87E689B9C0
:100B200012B880E98AB986E083B90895CF9320D2BC
:100B3000C82F83FF02C085E001C081E06C2F661FD3
:100B40006627661F660FEC2FE295E770F0E0EC5B1E
:100B5000F74F449141DFC770EC2FF0E0E45CF74FB2
:100B6000E491E0936500CF910895EF92FF920F9387
:100B70001F93CF93DF930F92CDB7DEB77C01D6DF03
:100B80003BDF87010E5F1F4FC7010196F1D1982F00
:100B900042C078019E37A1F40894E11CF11CC80101
:100BA000E7D18E3761F1E82FE154E43140F5F0E010
:100BB000EE0FFF1FEE5EFC4F8591949132DF1FC058
:100BC0009F3F81F40894E11CF11CC801D1D107C0FA
:100BD0003BDF87010F5F1F4FC701CAD178018F3FED
:100BE000B9F70DC09E3549F40894E11CF11CC80109
:100BF000BFD1982F8E3509F0915C892F32DF8701A4
:100C00000F5F1F4FC701B4D1982F882321F080E0D8
:100C100099831ADF9981992309F0BBCFC801A8D124
:100C2000882311F400E010E0C8010F90DF91CF910C
:100C30001F910F91FF90EF9008951F920F920FB6A2
:100C40000F9211242F933F934F935F936F937F9352
:100C50008F939F93AF93BF93EF93FF9386B78C5F70
:100C600086BF10DEFF91EF91BF91AF919F918F9161
:100C70007F916F915F914F913F912F910F900FBE98
:100C80000F901F9018951F920F920FB60F9211247C
:100C90002F933F934F935F936F937F938F939F9384
:100CA000AF93BF93EF93FF938CB7895D8CBF809117
:100CB0006600882321F081508093660005C08091F2
:100CC0006500809366004CDE80B386FF08C080918B
:100CD000640080FF1CC0809164008E7712C08091F8
:100CE000640080FD05C081E08093640084E60DC04F
:100CF00080916400813059F480916800882321F448
:100D000083E08093640003C0815080936800FF916A
:100D1000EF91BF91AF919F918F917F916F915F9173
:100D20004F913F912F910F900FBE0F901F901895EC
:100D30001F920F920FB60F9211240F900FBE0F90BB
:100D40001F9018951F920F920FB60F9211242F9398
:100D50003F934F935F936F937F938F939F93AF9343
:100D6000BF93EF93FF936CB16B3119F486E08093DE
:100D7000690080916900833009F441C0843028F40F
:100D8000813089F08230E0F409C0853081F085300F
:100D900008F442C0863009F06FC05FC0683409F0C3
:100DA0006BC081E04FC06C3409F066C04AC06D3042
:100DB00009F462C06A3009F45FC082E08093690080
:100DC0006E3511F483E03EC0643221F410926A0063
:100DD00084E038C080916000909161009C012F5F99
:100DE0003F4F30936100209360006D3011F06A3006
:100DF00021F460E0C5D085E025C0C2D03DC080911F
:100E00006000909161009C012F5F3F4F3093610023
:100E100020936000615C14C0962F9053913108F0CC
:100E20009750903190F080916000909161009C010A
:100E30002F5F3F4F309361002093600060916A0004
:100E40009FD082E08093690017C080916A008295EC
:100E5000807F890F80936A000FC080E090E09093BC
:100E60006300809362009093610080936000C4DD12
:100E700081E8F7DD10926900FF91EF91BF91AF918A
:100E80009F918F917F916F915F914F913F912F91A2
:100E90000F900FBE0F901F90189527DEBCDD789441
:100EA00081E8DFDD8FEF94E3ACE081509040A0401B
:100EB000E1F700C00000809162009091630055DE70
:100EC0009093630080936200C0E1D0E4809164005D
:100ED000882371F4809162009091630046DE9093C4
:100EE0006300809362008091640080688093640056
:100EF00080916400833051F77FDD82E8B2DD8FE7B7
:100F00009AE1A6E081509040A040E1F700C00000C7
:100F100073DD8FEF94E3ACE081509040A040E1F7A7
:100F200000C00000CABFD5B9CBBF85B7806585BFFB
:100F300085B7806285BF889585B78F7D85BF1BBECD
:100F400083E88FDD8FE79AE1A6E081509040A040D2
:100F5000E1F700C0000080E090E007DE90936300BE
:100F60008093620080916400806880936400AECFBB
:100F7000E199FECF1FBA8EBBE09A99278DB30895F1
:100F8000262FE199FECF1CBA1FBA8EBB2DBB0FB620
:100F9000F894E29AE19A0FBE01960895F894FFCF73
:080FA0000000000080080100C0
:00000001FF
